:020000040800F2
:1000000000000320CD460008014700080147000812
:1000100001470008014700080147000800000000F0
:100020000000000000000000000000000147000880
:1000300001470008000000000147000801470008D0
:100040000147000801470008014700080147000870
:100050000147000801470008014700080147000860
:100060000147000801470008014700080147000850
:100070000147000801470008014700080147000840
:100080000147000801470008014700080147000830
:100090000147000801470008014700080147000820
:1000A0000147000801470008014700080147000810
:1000B0000147000801470008014700080147000800
:1000C00001470008014700080147000801470008F0
:1000D00001470008014700080147000801470008E0
:1000E00001470008014700080147000801470008D0
:1000F00001470008014700080147000801470008C0
:1001000001470008014700080147000801470008AF
:10011000014700080147000801470008014700089F
:10012000014700080147000801470008014700088F
:10013000014700080147000801470008014700087F
:10014000014700080147000801470008014700086F
:10015000014700080147000801470008014700085F
:10016000014700080147000801470008014700084F
:10017000014700080147000801470008014700083F
:10018000014700080147000801470008014700082F
:10019000014700080147000801470008014700081F
:1001A00001470008014700080147000810B5054C49
:1001B000237833B9044B13B10448AFF30080012313
:1001C000237010BD8804002000000000DCC9000876
:1001D00008B5034B1BB103490348AFF3008008BDCA
:1001E000000000008C040020DCC90008154B002B27
:1001F00008BF134B9D46A3F5803A00218B460F465E
:100200001348144A121A09F0B6FA0F4B002B00D00B
:1002100098470E4B002B00D0984700200021040087
:100220000D000D48002802D00C48AFF3008009F003
:1002300051F92000290001F05DFF08F025FE00BF04
:10024000000008000000032000000000E920000872
:10025000880400209C160020000000000000000020
:100260000368184708B10B680360704770470000C7
:1002700010B588B0684601F051F9684601F0DFF822
:100280000A4C204605F09DF840B9642001F048FF73
:10029000684601F029F9B0F5FA7FF2DD044B01223E
:1002A00068461A7001F0BBF808B010BDF8090020CC
:1002B000240B00200D4B0E491A7810B50D4C206808
:1002C00072B1E46800042060C8680968090482F01B
:1002D000010201601A70084B9A681B68136010BD18
:1002E000A468206088680968F1E700BFC80400209E
:1002F000B8050020D40500209C05002038B51C223C
:1003000004460D46002109F036FA2046294601F040
:1003100093F9204638BD000037B523210F480AF075
:1003200005F804460E4B012014B91C7003B030BD13
:100330001870611C0025684609F0C1FF2570074848
:1003400006F090F810220446294668460AF028F97B
:10035000C0B2031B58425841E8E700BF090500201E
:100360008B05002038B5144C2068BC3001F05AFFD2
:10037000C0B20A2812D12068104C114D06F0E6F9DF
:1003800023780022EA54FFF7C7FF28B10D4B012262
:100390001A700023237038BD2870FAE70D28FAD0B0
:1003A000064A0749137813F0800F13BF0023C8547F
:1003B00001330B701370EEE79005002089050020D3
:1003C000090500208C05002070B5154D154C2846F8
:1003D00005F0E5F918B3144801F024FFC0B20A286B
:1003E00011D1284606F0C2F9104E23780022F254AB
:1003F000FFF792FF28B10E4B01221A7000232370E1
:10040000E5E73070FAE70D28E1D02378074A13F0CA
:10041000800F15BF0023D05413700133EFE770BD78
:10042000F809002089050020540A00200905002051
:100430008C0500200D4C08B5A36822681A600C4B8F
:100440009A681B6813600B4B9A681B68136063689B
:100450001A6823681A4216BFE268A2681B04136078
:100460004FF4FA7001F05CFEF1E700BFD405002004
:10047000B80500209C0500200FB410B5C2B044ABF5
:100480000F4C53F8042B01934FF4807102A80AF02B
:10049000D7F84FF49671204608F010F923684BB155
:1004A000084B186802A9BC3001F0CEFE02A906482C
:1004B00001F0CAFE42B0BDE8104004B0704700BF72
:1004C000F409002090050020540A0020C36810B5EC
:1004D00004460BB19B689847204610BD0B4B10B5E6
:1004E00003F188020360E4330446C2650366743096
:1004F000FFF7ECFF04F15C0001F07AFE044B23608F
:10050000204604F051FA204610BD00BFACBC0008E4
:10051000C0BB0008A0F15C00E0E7A0F16000DDE7EF
:100520002DE9F04F59485A4DDFF8A48187B0FFF705
:10053000A3FF5848FFF7A0FF05F17400FFF7C6FFBF
:10054000554A564B6B670024554B1068554AC5F801
:100550008030C5E91E44029202A922460593CDE9E6
:100560000344514D00F0C6FD02A8FFF7AFFF474618
:100570000294D8F80830D8F800201A60AB682A68CE
:100580004A4E1A603368F2681B041360484B1A78AD
:100590001AB100221A7000F037F9DFF8389199F893
:1005A0000030002B58D03B68FA681B0413602B689E
:1005B000EA681B041360B36832681A603D4B4FF061
:1005C000000B9A461BF80300009338B108F0AFFF08
:1005D000044620B10BF1010B009BF3E704463549BB
:1005E000CBF10102D34408460192009109F06FFE5D
:1005F000019A1044A04206D91BF804300AF80430CE
:1006000000990134EFE72C4A2A492C4806F0CAFD2C
:1006100090B1294805F036FF274806F0C1F8284B6D
:100620001B7833B1244805F01DFF0146254806F02C
:10063000B7F8254806F0B4F8002389F80030BB6805
:100640003A681A60AB682A681A603368F2681F4813
:100650001B04136000F051FF4FF4967102A808F0DC
:100660001FF9002885D1194800F02EFFDDED027A30
:1006700007EE100AF8EE677AB4EEE77AF1EE10FAB8
:100680007FF777AF00F028F873E700BF54AF00089A
:10069000F809002079AF000890050020C903000880
:1006A00048AF000865030008B80500209C0500203D
:1006B000240B002009050020F10500208A050020F8
:1006C0008B05002091AF000898B70008A80400200F
:1006D000D40500208C05002030B5404B1B68013349
:1006E00097B004D13E48FFF7C7FEFFF719FF16ADDC
:1006F00000233C4C45F8583D4FF49671204607F0D6
:10070000C7FF4FF49671284607F0ACFF2368002B13
:1007100035D0009B002B32D005F0EEFED4ED007AF0
:10072000F8EE677A17EE901A05F0F6FE21682E486B
:10073000FFF7A2FE29492D482D4CFFF79DFE2D48BD
:10074000FFF79AFE2C4B9A681B6813602B4B9A6834
:100750001B6813602368E2681B041360012001F02A
:10076000DFFC274804F035F9254804F03BFE244817
:1007700004F027FE38B10A2001F0D2FCF7E7214847
:10078000FFF77AFED6E7642001F0CAFC1C4B186F15
:1007900001F0BAFB0A2101A8FFF7B0FD0B2108A860
:1007A000FFF7ACFD0C210FA8FFF7A8FD019B049AF1
:1007B0001B041360089B0B9A1B0413600F9B129A77
:1007C0001B041360642001F0ABFCA36822681A606C
:1007D000024801F05BF917B030BD00BF000001080E
:1007E00053B40008F409002067B40008ADB4000851
:1007F0009C050020BFB40008D4050020B8050020E7
:10080000F809002098B4000870B5A4489CB0FFF720
:1008100033FEA348FFF730FEA248FFF72DFEA248A3
:10082000FFF72AFEA148FFF727FEA148FFF724FEA5
:10083000A048FFF721FEA048FFF71EFE9F48FFF7E4
:100840001BFE9F48FFF718FE9E48FFF715FE9E48C7
:1008500007F072F9032802D19C48FFF70DFE9C496E
:100860009C489D4CFFF708FE97499C48FFF704FE03
:1008700007230022CDE90132122303220121009334
:10088000974840F2E273FFF7F7FD04A805F0A8FDD2
:1008900004A99448FFF7F0FD0CA805F027FD0CA96A
:1008A0009148FFF7E9FD4FF49671904807F05EFF1D
:1008B0008E498F48FFF7E0FD02F080F942F2107692
:1008C000054663681A6823681A4214D002F076F964
:1008D000401BB04235D9874A5368196813681942DA
:1008E0000EBF9268D2681B0413600A2001F018FC46
:1008F000814B04221A70814D4FF49671284607F0FF
:100900009BFE2B68002B33D07D487B4CFFF7B4FD5A
:100910004FF49671794807F0ADFF2B6853B37948CF
:10092000FFF7AAFD207840BB032301214FF4967204
:10093000237008F05DFA0146F8B17348FFF79CFD9B
:10094000FEE7B0F57A7FBCD96A4B9A681B681360E2
:100950006E4B9A681B6813606D4BDA681B681B044A
:100960001360654B1A78002AABD103221A70A8E7EE
:100970006848CAE76848FFF77FFD4FF496715F4803
:1009800007F0DEFE2968002935D06448FFF774FDC2
:1009900023780BB9022323704FF49671574807F060
:1009A000B9FE2B685BB35E48FFF766FD4FF49671A6
:1009B000524807F02BFE2B6853B35A48FFF75CFDF3
:1009C00023780BB901232370574B1B68013323D1C4
:1009D0005648FFF751FD23780BB903232370237882
:1009E00003B923702378042B00F2BC80DFE803F006
:1009F000184E505254004E48FFF73EFDCCE74D488C
:100A0000FFF73AFD2378002BD0D103232370CDE7E5
:100A10004948FFF731FDD7E74848FFF72DFDDEE7EE
:100A20004748FFF729FD2478012C40F0A5804FF4BA
:100A30009671324807F000FE68B92B685BB120461A
:100A400007F054F9012803D107F05CFB0028FBD123
:100A50003C48FFF711FD002007F034FA00214FF465
:100A60009672084607F0FEFF01214FF49672084681
:100A700008F0D8F83448FFF7FFFC3448FFF7FCFCD7
:100A80003348FFF7F9FCFFF727FEFEE73148C8E7D8
:100A90003148C6E73148C4E73148C2E798B7000893
:100AA000BFB4000838B5000897AF0008DBAF0008F6
:100AB0001FB0000863B00008A7B00008EBB0000842
:100AC0002FB1000873B1000877B100087FB10008AA
:100AD000BBB10008D6B10008080B0020E4B1000843
:100AE000F3B1000823B2000834B20008C9040020A2
:100AF00049B20008D4050020F0050020F4090020C8
:100B000058B200087FB2000892B20008B805002071
:100B10009C0500206BB20008B2B20008C6B2000803
:100B2000F8B2000823B300080000010853B300081E
:100B3000E3B200080DB300083BB3000869B3000836
:100B40007FB30008EBB30008FFB3000815B400083A
:100B500027B400088FB30008A0B30008B3B300089F
:100B6000C7B300081E48FFF787FC2378002B7FF4EB
:100B70005AAF0323237056E7022C0BD1012007F054
:100B8000A1F904461748FFF777FC0CB1164878E73F
:100B9000164876E7032C01D1FFF7C2FC042C7FF442
:100BA00072AF134B1349DA681B6813481B041360B8
:100BB000124BDA681B681B041360114B9A681B68A0
:100BC0001360104A06F0EEFA0028E5D00D4805F053
:100BD00059FC0C4805F0E4FD0B4805F0E1FDDBE7AE
:100BE000DAB300083EB40008E4B3000821B40008FA
:100BF000D40500204AB400088A050020B80500206A
:100C00009C050020F105002098B700084C4BDA68DD
:100C10001B681B0430B513604A4B4B4CDA681B68E9
:100C20001B041360494B9A681B68136099B002A8B3
:100C300000F074FC02A800F002FC454800F0FFFB45
:100C4000204604F0BEFB40B9642001F069FA02A816
:100C500000F04AFCB0F5FA7FF2DD3B4C3D4BC4F8A6
:100C60000C31D82001F044F94FF416532B22009395
:100C70002A210023054600F055F9374B4FF4E131A6
:100C800028461D6000F085F9204605F06FFD05201F
:100C900005F07AFD002005F07DFDDC2001F028F94B
:100CA000572358225921044605F0CEFC2B4A012334
:100CB000CDE90B2340231722CDE90D324FF400017B
:100CC0008022CDE90F124FF480304FF40062CDE95D
:100CD00011024FF480554FF40042CDE913524FF406
:100CE0008072CDE91523214656230BA8ADF85C3060
:100CF00005F076F920B11A48FFF7BEFBFFF79AFB23
:100D000005F0C0F808B11748F6E7174C174D05F085
:100D100067FA206807F07CFE154807F079F8296823
:100D2000206807F00BFA124806F0BCFB2A6821681D
:100D3000104806F02DFA206807F024FCFFF764FD48
:100D4000D4050020B8050020F80900209C050020EB
:100D5000A8040020710200089005002080DE8002B7
:100D600000B500081DB50008940500209805002076
:100D7000B50200088A05002010B50446FFF7AEFB57
:100D8000204601F0C1F8204610BDA0F15C00F3E759
:100D9000A0F16000F0E7000073B5264C264E002558
:100DA000022342F21302009541F60171204604F03D
:100DB00027FC294604F15C0001F0F2F91F4B236087
:100DC00003F18802E265E4332946102204F174003D
:100DD000236608F0D0FC3246A4F884501849A4F8E1
:100DE00086502046C4F80C5101F040F83E211548C9
:100DF000154CFFF783FA3D211448FFF77FFA3F2196
:100E00001348FFF77BFA134B1C221846294608F0BB
:100E1000B2FC294600F0FDFB0F4806F0B3F920466E
:100E200000F07CFB0D493246204602B0BDE8704020
:100E300001F01CB8F8090020AC010020ACBC00088F
:100E4000DD040008D4050020A8040020B805002017
:100E50009C050020080B00208A0500201F140008B4
:100E6000884238B504460D460AD0FFF72FFB3CB147
:100E7000EB681BB15B68294620469847EB68E36046
:100E8000204638BDC3681B68184703681B691847AC
:100E900003689B69184703689B6A18474FF0FF3047
:100EA0007047112070477047704700F097B8A0F165
:100EB000BC00FFF7FABF00F094B8A0F1BC00FFF748
:100EC000FABF00000A4B10B503F10802026003F1FB
:100ED000280284330446C0F8BC20C0F8C030BC30BF
:100EE00001F086F9204600F03FF9204610BD00BF12
:100EF0003CB50008A0F1BC00E4E7A0F1C000E1E7C8
:100F000010B50446FFF7DEFF204600F0FDFF204647
:100F100010BDA0F1BC00F3E7A0F1C000F0E77047FE
:100F20007047000038B504461D46049B00F068F881
:100F3000294604F1BC0001F033F9064B03F1080225
:100F4000226003F128028433C4F8BC20C4F8C03006
:100F5000204638BD3CB50008704700EB01139833BC
:100F6000DA6812B1126818461047704730B470B191
:100F7000D2E9004303F0010204B942B15B10C51885
:100F80000AB1C3581C592846234630BC184730BC08
:100F9000704770B50546044655F84C3B0E461B6835
:100FA00098472846314603F0AFFA2368C4F8B86082
:100FB00020465B68BDE87040184738B505460446D2
:100FC00055F84C3B1B689847284601F029FC2368DC
:100FD00005465B6820469847284638BD4C3003F0EC
:100FE00005BB10B54C300C4603F012FB204610BD7B
:100FF000C36810B504460BB19B689847204610BDE6
:101000002DE9F04F002587B09246CDE90055024604
:101010009B46344B42F8083B6B460446894693E8AE
:101020000300314B82E80300236148F20703636148
:101030002E4BE561A46122626362BFF36F8FBFF341
:101040004F8F102284F8285084F8295004F12C0086
:1010500008F091FB04F14C062946102204F13C00F3
:1010600008F089FB04F1980829464C22304608F024
:1010700082FB04F1A80729461022404608F07BFBBA
:1010800029461022384608F076FB10222946C4F87B
:10109000B8B002A808F06FFB02A94046FFF7E0FED7
:1010A00002A8FFF713FA1022294602A808F063FBF2
:1010B00002A93846FFF7D4FE02A8FFF707FA524606
:1010C0004946304603F0F2F8D4F8B810304603F041
:1010D0001BFA30462246064903F01AFA204607B0AA
:1010E000BDE8F08FD0B5000801A090E86D0F0008B2
:1010F0005B0F00082DE9FF41036804461646884649
:101100001B6804EB06159847983500F043FDD8F8A6
:101110000C20EB6804F14C07A2B10BB900F0DCFA2B
:1011200041462846FFF79CFE01223146384603F02F
:10113000FBF900F045FD236820465B68984704B042
:10114000BDE8F0810BB100F0C8FA1022002168461A
:1011500008F011FB69462846FFF782FE6846FFF754
:10116000B5F90022E1E700007FB51A4B03600446A1
:1011700010220021684608F0FEFA00226946204647
:10118000FFF7B8FF6846FFF7A1F910220021684673
:1011900008F0F1FA012269462046FFF7ABFF6846E6
:1011A000FFF794F914F1980608D004F1B805AE429F
:1011B00004D0103D2846FFF789F9F8E704F13C0018
:1011C000FFF716FF04F12C00FFF712FF204604B0D2
:1011D00070BD00BFD0B5000810B50446FFF7C4FFCE
:1011E000204600F091FE204610BD7047024B1A6861
:1011F0000AB91A1D1A607047280B002010B5044662
:1012000000F082FE204610BD70B5094D2B68834268
:1012100004460BD0061DD0E91B120023304601F016
:1012200009FC616F304601F02FFC2C6070BD00BFDF
:10123000300B0020036870B59B6804460D461646C7
:1012400098470B4B1B68A342C4E91B560BD10023E4
:1012500032462946201D01F0EDFB23682046DB685D
:10126000BDE8704018472046FFF7CEFFF5E700BF06
:10127000300B0020036870B59B6804460D46984704
:10128000094B65671B68A34209D12946201D01F05F
:10129000FBFB23682046DB68BDE87040184720460A
:1012A000FFF7B2FFF5E700BF300B002038B5036849
:1012B00004469B680D4698472046FFF7A5FF294640
:1012C000201D01F0FFFB23680546DB682046984798
:1012D000284638BDF7B51F46036804469B680D468F
:1012E000164698472046FFF78FFF94F87830019311
:1012F000089B009329463B463246201D01F007FC1F
:1013000023680546DB6820469847284603B0F0BDB1
:101310002DE9F34105469846114B45F8043B044638
:101320000E46174600216822284608F024FA0822B3
:101330000023C4E91B230B4B6367FF2384F8783039
:10134000BDF9203000933A4643463146284601F025
:1013500089FA2046FFF758FF204602B0BDE8F08129
:10136000E8B5000840420F002DE9F048D0E90245F9
:10137000D0E908BC06461BEB04024CEB050300F069
:10138000FDF8736B2BB106F128001B68BDE8F0482F
:101390001847BDE8F08830B5044685B000F0FAFB88
:1013A000204600F0F5F8636B23B194F838300BB1A8
:1013B00000F093F904F1280510220021684608F096
:1013C000DAF92846FFF782F83DB1039B1BB15B6851
:1013D000694628469847039B63636846FFF776F89B
:1013E00000F0EEFB05B030BD38B50546064B45F8BC
:1013F000283B0446FFF7CFFF2846FFF767F8204653
:1014000000F0CCF8204638BD08B6000810B50446F8
:10141000FFF7EAFF204600F077FD204610BD10B52B
:10142000044600F0B7FB23681BB1237F0BB100F02B
:1014300054F90023236000F0C3FB204610BD10B513
:10144000044600F0A7FB236853B9237F0BB100F0DB
:1014500043F9A06900F016FAC4E9020101232360F0
:10146000BDE8104000F0ACBBF8B5044600F092FBBC
:10147000236873B1A06900F005FAD4E90245041BA2
:1014800061EB050526462F4600F09AFB30463946AB
:10149000F8BD00260027F7E72DE9F041064600F0E9
:1014A00079FB3046D6E90478FFF7DEFF3C1848EBBD
:1014B000010500F085FB20462946BDE8F08108B50E
:1014C000FFF7EAFF08BD000008B5FFF7F8FF07EED9
:1014D000900AB8EEE77ADFED037AC7EE277A17EEC7
:1014E000900A08BD0024744908B5FFF7D5FF4FF4F2
:1014F0007A72002309F09CFB08BD10B5044600F089
:1015000049FBA06900F0BEF900220023C4E90201F2
:10151000C4E90423BDE8104000F052BB002310B51D
:10152000002203600023C0E90223C0E9042304462B
:1015300000F0B8F90123A06123772046FFF7DDFF13
:10154000204610BD03689B6818470000094B10B582
:10155000002203600023C0E902230023C0E9043312
:10156000044600F09FF90449A06100F01CF92046F0
:1015700010BD00BF1CB600084515000807B5009057
:1015800000F10801806900F038F903B05DF804FB50
:1015900000F10801806900F05AB9000010B5034B52
:1015A00003600446FFF7F4FF204610BD1CB6000898
:1015B000036801221B6900211847036800221B6988
:1015C0001146184770B50E460446154600F022FF36
:1015D000013609D02046002100F040FF2946204670
:1015E000BDE8704000F036BF70BD38B504460D460A
:1015F00003685AB1826813602046012100F02EFF73
:1016000029462046BDE8384000F024BFC2681B04CC
:10161000F1E70022FFF7D6BF70B50E460446154627
:1016200000F0F8FE013606D02A4620460021BDE82B
:101630007040FFF7DABF70BD0022FFF7EDBF00007A
:1016400010B5044601300DD110BDA34209D120468A
:10165000896800F0E1FF20460021BDE8104001F05C
:101660005FB80C31B1F900305A1CEED10248BDE828
:10167000104000F0B9BA00BF59B60008884208B55A
:1016800008D0431C06D0013106D0044800F0ACFA63
:101690004FF0FF31084608BD0146FBE728B60008B9
:1016A000B1F900305A1C01D118467047834201D16C
:1016B000486870470C31F3E7421C10B5044607D068
:1016C000FFF7EEFF431C044602D1024800F08CFAFB
:1016D000204610BD39B6000870477047F8B543681A
:1016E000D3E9026703685B68044698470022B0426A
:1016F00061683D4642EA000402D2003447F1010528
:10170000C1E90245F8BD2DE9F0410646FFF7E6FFC5
:10171000726837685368D2E902012BB3D3E900231A
:10172000994208BF904203D37B69BDE8F041184756
:10173000141A63EB0105002D08BFB4F1E04F13D27A
:10174000121A84183B69204641F10005984730463B
:10175000FFF7C4FF7368D3E90223AB4208BFA2427C
:1017600005D333685B69E0E74FF0E042E9E7BDE8A5
:10177000F08138B543681D7C04469DB903681B6839
:1017800098476368002000210122C3E90201C3E9F0
:10179000005520461A74FFF7A1FF2046BDE83840E7
:1017A000FFF7B1BF38BD38B505460C46FFF7E1FF7E
:1017B0006B681C6038BD036870B5DB6804469847E9
:1017C00063685B68A3B12046FFF788FF65686E68B1
:1017D000D5E90201D6E90023994208BF904207D318
:1017E000F3686B602B68002BEAD0B0689847E7E796
:1017F0002046BDE87040FFF786BF2DE9F843054657
:101800000C4616461F46DDF8208000F0C3F9284636
:10181000FFF764FF6968C4F80880C4E900674B6893
:1018200000224BB9E36082B94C602846FFF76BFF9A
:10183000BDE8F84300F0C4B9D3E900894F4508BFBB
:101840004645EFD31A46DB68EBE7D460EDE738B5E1
:1018500005460C4600F09EF96A685368A34209D118
:10186000DB6853602846FFF74EFFBDE8384000F0C4
:10187000A7B91346002BF8D0DA68A242F9D1E26882
:10188000DA60F2E710B50446FFF773FF2046FFF772
:1018900025FF6368D3E9020110BD08B5FFF7F2FF29
:1018A00008BD0000004870476CB600080148FFF70B
:1018B00082BF00BF6CB6000838B5CB6804460D4641
:1018C0000BB15B689847EB68E360204638BD007B4E
:1018D000704703680BB9031D036000687047000080
:1018E00038B50B4B0360002304460D46C0E90131B7
:1018F00002730848FFF7EDFF45B1074B1A686260B5
:101900001C600448FFF7E5FF204638BD6560F8E736
:1019100094B60008540B0020500B002010B50F4B5C
:10192000036004460E48FFF7D4FFA3682BB10D4AAD
:101930001368A3420CD1636813600948FFF7C9FF1D
:10194000237B13B9201F00F0E3FA204610BD134695
:101950005A68A242FBD162685A60EEE794B600086A
:10196000540B0020500B002010B50446FFF7D6FFA3
:10197000204600F0C9FA204610BD000070B50646AA
:101980000C480D46FFF7A5FF0B4B1C685CB1A06827
:1019900070B12A46314608F0A2FC48B9A06808F0A8
:1019A00096FCA84204D10348FFF793FF204670BD80
:1019B0006468EBE7540B0020500B002000207047B8
:1019C00000207047036870B51B690122002104469E
:1019D0009847051E0DDB236802221B690021204663
:1019E00098472368064629461B69002220469847E7
:1019F0003546284670BD00F03EBA10B50023C0E958
:101A000000330A782F2A04460DD14A785AB1481C6F
:101A10002060194623681A782F2A06D101332360E3
:101A2000FFF7ACFF6060204610BD002AF8D00133FC
:101A300001312360EEE700687047406808B520B1C7
:101A4000FFF745FF431E5842584108BD10B50446F4
:101A5000FFF7F3FF10B1606800B1043810BD4068B3
:101A600008B520B1FFF733FFB0FA80F0400908BD98
:101A700010B50446FFF7F3FF10B1606800B10438F9
:101A800010BD4068003018BF01207047F0B572B635
:101A9000234ADFF898C0002313604FF0E0221C4671
:101AA000516801F00F0101314FF0FF371E46A200CF
:101AB00002F1604202F56142C2F88070C2F88071A2
:101AC0000022D51865440132082A85F80063F8D150
:101AD0000134A14203F10803E9DC124B4FF020620C
:101AE0005A6040F2FA529860DA6000221E61114694
:101AF0009C1801320C2A2176FAD14FF0FF3259623C
:101B00009A62094ADA621F221A63D0E900314FF063
:101B1000000282F314889D4682F310880847F0BDC6
:101B200010E000E000ED00E0020000C000E100E095
:101B300010B588B000F02EF83E2101A8FFF77CFD1B
:101B40000424039B019A1A60962000F0E9FA019B95
:101B5000049A1B041360962000F0E2FA013CF0D1D5
:101B60000424039B019A1A604FF4C87000F0D8FA5D
:101B7000019B049A1B0413604FF4C87000F0D0FA64
:101B8000013CEED1DCE7EFF31080C04300F0010030
:101B90007047000008B5FFF7F6FF72B6064B1A68EB
:101BA00022B980F00100054AC0B210701A681A68A4
:101BB00001321A6008BD00BF600B00205C0B0020E2
:101BC00008B5074B1A6852B1FFF7DDFF1A68013AF2
:101BD0001A601B681BB9034B1B7803B962B608BDBA
:101BE000600B00205C0B00200FB408B5054B1A7881
:101BF0001AB90120187007F047F9BDE8084004B091
:101C0000704700BF640B002008B5084B1B685BB928
:101C10002A2107482B2202F049FB4FF416510448B1
:101C2000BDE8084002F070BC08BD00BFC00C002039
:101C300010160020022810B501DC002010BDC31EC4
:101C40000B4A52F82300002142F8231030B907F064
:101C500015F9092303604FF0FF30EFE703685B6974
:101C60009847041EE9DA07F009F964420460F2E7D4
:101C7000680B00200228F8B50D4614460EDC134B05
:101C80001B680BB9FFF7C0FF114E2F19BD4210D0D2
:101C900015F8011B304602F0BBFCF7E703380D4B8B
:101CA00053F8200038B907F0E9F8092303604FF032
:101CB000FF342046F8BD0368DB689847041EF8DA55
:101CC00007F0DCF863420360F3E700BFC00C0020BC
:101CD00010160020680B0020022810B50C460BDC03
:101CE000104B1B680BB9FFF78FFF0F4802F07EFC0B
:101CF00020700124204610BD03380C4B53F82000FF
:101D000030B907F0BBF8092303604FF0FF34F1E767
:101D100003689B689847041EECDA07F0AFF863424B
:101D20000360E7E7C00C002010160020680B0020BD
:101D3000022810B516DD03380B4B53F820402CB9A0
:101D400007F09CF809230360204610BD2368204655
:101D5000DB699847041EF7DA07F090F864420460E4
:101D60000024F1E70124EFE7680B0020022810B5FA
:101D700007DC07F083F81D2303604FF0FF34204693
:101D800010BD0338084B53F8200018B907F076F857
:101D90000923F1E703681B699847041EEFDA07F08F
:101DA0006DF864420460E8E7680B0020022838B54B
:101DB0000D4604DC4FF400534B6000200AE003386A
:101DC0000D4B53F8204034B907F058F8092303604D
:101DD0004FF0FF3038BD23682046DB699847002864
:101DE00014BF4FF400534FF400436B602368204648
:101DF0009B6A98472861E0E7680B002008B501203E
:101E000007F042F80C4B1A6810B51044EFF3088144
:101E1000884206D3094B0C221A604FF0FF3210465D
:101E200010BD07490C6824B106490968214488425D
:101E3000F0D21860F3E700BFB00100209816002030
:101E4000700C0020740C002008B5074C2368054670
:101E5000986807F037F92368D86807F033F90DB1AF
:101E6000FFF766FEFEE700BFA002002001207047DA
:101E7000002108F0E5B81FB504220C463A230DEB0B
:101E8000020101900DF109008DF8083007F04FFCB8
:101E9000214602A807F04AFA044638B101980368BF
:101EA000DB69984710B12046FFF7E2FF204604B0F7
:101EB00010BD07F045B97047704708B5FFF7FBFF45
:101EC00008BD08B5FFF7F8FF08BD037803F003026B
:101ED000012A1DBF43F00203037001200020704758
:101EE000037823F0030343F00103037070470000FD
:101EF00010B507F09BFB044610B90248FFF774FECB
:101F0000204610BDE8B6000808B107F097BB70473F
:101F100010B504460948FFF7DCFC0023084A1946BF
:101F200052F82300A04208BF42F823100133402B8F
:101F3000F6D10248FFF7CDFC10BD00BF680C0020B1
:101F4000680B00202DE9FF4789464049064608F006
:101F5000ACF9044628B9FFF757FE204604B0BDE8A7
:101F6000F0873B49304608F0A0F918B9FFF74CFE5E
:101F70000124F2E73749304608F097F918B9FFF71E
:101F800043FE0224E9E73448344DFFF7A2FC002465
:101F9000A84655F82470002F40D00134402CF8D1C9
:101FA00006F06CFF182303602B48FFF792FC0EE04D
:101FB000314602A8FFF721FD02A8FFF762FD0646A1
:101FC00040B906F05BFF0223036045F824604FF040
:101FD000FF34C2E702A8FFF742FD074602A81FB17F
:101FE000FFF746FD01902BE0FFF730FD0646002885
:101FF000E7D0036802A8D3F808A0FFF71CFD29F476
:102000008033024601A93046D0470646C0B106F0EB
:1020100035FF7642066045F82470D8E74FF0FF336D
:102020000D4845F82430FFF754FC337801973A2BDC
:10203000BED10422711C02A807F079FB029B019318
:10204000019B48F82430033487E700BF0DB7000830
:1020500014B7000805B70008680C0020680B0020C2
:1020600038B5044608480D46FFF733FC074B1B689C
:1020700003B19847064B1B6813B120462946984781
:102080000148FFF726FC38BD800C0020880C00209A
:10209000780C002070B506460F48FFF71AFC0F4B6E
:1020A0001B682BB1984718B900200021FFF7D8FF13
:1020B0000B4B1B685BB1984704460D460EB1C6E951
:1020C00000450548FFF705FC2046294670BD4FF046
:1020D000FF344FF0FF35F1E7800C00207C0C00202E
:1020E0008C0C00207047704708B500F06DFAFFF7C0
:1020F000FAFF08BD08B5FFF7F5FFBDE80840FEF799
:1021000085BD70B50446FFF7CDFB0646FFF7C5FB5E
:1021100005463046FFF7C1FB401BA042F9D370BD16
:102120004FF47A735843FFF7ECBF704770470020B5
:102130007047F8B50368DB6C0E4604468F18984765
:102140003546BD42236806D05B6C15F8011B20465E
:1021500098470130F5D1236820461B6D9847A81B8E
:10216000F8BDF8B50368DB6C0E4604468F18984737
:102170003546BD42236807D09B6C20469847431CD8
:1021800002D005F8010BF4E7236820461B6D984741
:10219000A81BF8BD00207047002070477047000062
:1021A0000F4B10B50022044640F8043BFFF798FBA4
:1021B0000C4B23605C336360002363610A49204653
:1021C000FFF719FC606118B1FFF752FE204610BD01
:1021D00006F054FE01680548FFF706FDF6E700BF6C
:1021E000A4B60008A4B7000878B700087BB70008B9
:1021F0000A4B03F10802643310B5044602604360E1
:10220000406906F0A7FE064B236020464C3340F899
:10221000043FFFF783FB204610BD00BF9CB70008BA
:1022200024B7000838B503680446DB6C984760693A
:1022300006F048FF6069FFF73CFE236805461B6D0A
:1022400020469847284638BD0EB477B5036807ADD9
:10225000044655F8046BDB6C98476069019506F0FD
:1022600031FF019A6069314607F074FC2368054626
:102270001B6D20469847284603B0BDE8704003B068
:102280007047000000B500238DB00A2800F2998045
:10229000DFE800F00615222F3C495663707D8A0066
:1022A00001934A4B4A481A6B42F001021A631B6BB6
:1022B00003F001030193019B0DB05DF804FB029351
:1022C000424B44481A6B42F002021A631B6B03F044
:1022D00002030293029BEFE703933C4B3E481A6BC9
:1022E00042F004021A631B6B03F004030393039B85
:1022F000E2E70493354B39481A6B42F008021A633F
:102300001B6B03F008030493049BD5E705932F4B45
:1023100033481A6B42F010021A631B6B03F0100370
:102320000593059BC8E70693284B2E481A6B42F08D
:1023300020021A631B6B03F020030693069BBBE786
:102340000793224B28481A6B42F040021A631B6B1A
:1023500003F040030793079BAEE708931B4B23480A
:102360001A6B42F080021A631B6B03F08003089320
:10237000089BA1E70993154B1D481A6B42F4807224
:102380001A631B6B03F480730993099B94E70A9308
:102390000E4B18481A6B42F400721A631B6B03F45D
:1023A00000730A930A9B87E70B93084B12481A6B3A
:1023B00042F480621A631B6B03F480630B930B9BE4
:1023C0007AE70E48FFF710FC002075E7003802405E
:1023D000000002400004024000080240000C0240DD
:1023E000001002400014024000180240001C02408D
:1023F00000200240002402400028024008B80008E3
:1024000010B50021044604F00F0400F005F9012086
:10241000A04010BD70B504464B1C0E46218216D05C
:10242000C1F30310FFF72EFF05463046FFF7E8FF24
:10243000238A074A656103F00F03206052F82330B6
:10244000A36105F110031835C4E90255636070BD3E
:102450002CB80008B0F9100000F062B910B5D0E94E
:10246000054371B9216893FAA3F2B2FA82F203200C
:10247000520000FA02F221EA020293FAA3F3226068
:1024800010BD226893FAA3F1B1FA81F193FAA3F394
:102490000320490000FA01F1B3FA83F322EA0102B2
:1024A0005B00012101FA03F313432360E8E7000016
:1024B00070B5134C23681A69950707D5DA68900739
:1024C00004D56FF002021A61FFF7F0F923681A6968
:1024D000510713D5DA68520710D56FF00402094E80
:1024E0001A615D6A3368EB1AB3F57A7F06D300F0A0
:1024F0005DFB236805F57A729A63356070BD00BF95
:102500005C160020900C002030B589B001A903A80A
:1025100001F058F801F026F800230293244B0190B3
:102520001A6C244C42F008021A641A6C02F0080279
:102530000292029A1A6A42F008021A621A6A22F099
:1025400008021A62069AA3F50B3323604FF0FF339B
:10255000E360194B4ABBB0FBF3F001380025606023
:1025600014482561A560656101F070FC13493220B3
:1025700002F08CF8124B0F484FF480225A60294623
:1025800001F08AFC04210B4801F086FC23680D4A07
:10259000596A1160126802F57A729A63DA682846FD
:1025A00042F00402DA6009B030BD4000D3E700BF5A
:1025B000003802405C16002040420F00B1240008A1
:1025C00000E100E0900C002008B501F0C9FD00F02A
:1025D000D5FA02F00FF9BDE8084001F0C1BD30B5F1
:1025E000C36891FAA1F4B4FA84F491FAA1F1032535
:1025F000B1FA81F1640005FA04F4490023EA040306
:1026000002FA01F11943C16030BD012A02D0022A49
:1026100018BF0022FFF7E3BF2DE9F0413F4B00F068
:102620000F08C0F3031053F828400E4601F00705C9
:10263000FFF728FE836894FAA4F1B1FA81F194FAC5
:10264000A4F20327490007FA01F1B2FA82F223EA61
:1026500001035200022101FA02F213438D4283600A
:1026600028D0BD4241D0691E4B424B41026894FACA
:10267000A4F7B7FA87F794FAA4F14FF0030CB1FA74
:1026800081F17F000CFA07F7490022EA07028B402C
:10269000013D1343012D036005D8436832074CBF49
:1026A0002343A3434360C6F301122146BDE8F04132
:1026B000FFF7ABBFB8F1070FC6F3032717D9426A7C
:1026C000230A93FAA3F1B1FA81F193FAA3F34FF03D
:1026D0000F0CB3FA83F389000CFA01F19B0022EA94
:1026E000010207FA03F3134343622B46BEE7026A73
:1026F00094FAA4F3B3FA83F394FAA4F14FF00F0C15
:10270000B1FA81F19B000CFA03F3890022EA03027B
:1027100007FA01F313430362E7E700BF2CB8000890
:1027200038B500F00F02194BC0F3031053F82240E4
:102730000D46FFF7A7FD04FB04F2016802EB42031C
:102740000B40B3FBF2F3013B012B05D8EB1E022B30
:10275000436809D823434360032D08D10122214651
:10276000BDE83840FFF751BF23EA04034360012D61
:10277000F4D0052D01D0022D01D10222EFE7214630
:102780000022BDE83840FFF72ABF00BF2CB8000880
:1027900042681649920110B5046854505318826873
:1027A0005A60C2689A600269DA6042691A61026A14
:1027B0009A610022DA84DA619A84DA859A85B0F91E
:1027C0001A2001320AD108225A61184601F099FCF8
:1027D00058B10748BDE81040FFF706BAB0F9182015
:1027E00001320CBF04220C22EEE710BD9013002032
:1027F0006CB800084368094A9B0182B0D3581A6834
:10280000120706D5002201921A6801925A680192B5
:10281000019A1868C0F3401002B07047901300206E
:102820004368034A9B01D3581868C0F3C01070472F
:10283000901300200268136823F0400310B5136062
:10284000044600F04FFF10B10548FFF7CDF9A3682B
:1028500023B92268136843F04003136010BD00BF22
:1028600094B800082DE9F04F884689B004466649BF
:10287000BDF94860404615461F46FEF71DFF6349F7
:1028800081462846FEF718FF614901903846FEF759
:1028900013FF604982463046FEF70EFF019B8346D8
:1028A00019464846FEF7EAFE594681465046FEF76D
:1028B000E5FE01464846FEF7E1FE574BE0659842CB
:1028C0004FF000031ED10293544B5A6C42F48052D5
:1028D0005A645B6C03F480530293029B232384F8B5
:1028E00058304F4B98422ED1002307934B4B5A6CD4
:1028F00042F400125A645B6C03F400130793079BC5
:1029000056231EE0474A90420CD10393434B1A6C66
:1029100042F480421A641B6C03F480430393039BCC
:102920002423DCE7404A904248D104933B4B1A6C85
:1029300042F400421A641B6C03F400430493049BAA
:10294000332384F8583030494046FEF779FE2F494A
:102950002846FEF775FE2E493846FEF771FE711CBB
:10296000A4F86050A4F86280A4F86470A4F86660CB
:1029700045D028493046FEF763FEE36D23600135FC
:102980004FF4827308BF4FF4004263604FF0380386
:10299000E36108BFA2604FF000034FF0070220463A
:1029A00018BFA360C4E90433A362E262E360C4E930
:1029B000083309B0BDE8F04FFFF73CBF1B4A904217
:1029C0000CD10593154B5A6C42F400525A645B6C5F
:1029D00003F400530593059B5423B2E7144A904235
:1029E0007FF47FAF06930D4B5A6C42F480125A6409
:1029F0005B6C03F480130693069B5523A1E74FF409
:102A00000073A361B9E700BF3CB90008DCB8000857
:102A10009CB90008F0B900080030014000380240BD
:102A20000054014000380040003C004000340140A8
:102A30000050014010290CBF4FF400610021012A11
:102A4000C16016D0022A17D0CAB9026142618269F8
:102A5000B2F5007F05D0002B14BF00224FF4802276
:102A60008261002B14BF00234FF482734360FFF791
:102A7000E1BE00210161E9E702610022E6E70222EE
:102A800002610122E2E7000070B504460E4601F043
:102A9000D1FD0023022290FBF2F0B042DDB203DD53
:102AA0000133082B09D10725054B33F81530E361B5
:102AB0002046BDE87040FFF7BDBE90FBF2F0ECE7AA
:102AC00084B8000807B583680191B3F5004F02464A
:102AD00007D10A23012201A900F046FE03B05DF8E8
:102AE00004FBC36D99688907FCD5D168019AB1F5DB
:102AF000006F0CBF92B2D2B2DA609A68D207FCD5EE
:102B0000D868B1F5006F0CBF80B2C0B2E6E72DE91E
:102B1000F84F0A9E84689DF82CB096423546804650
:102B20008A4617469946B8BF15460CB33AB10A23F0
:102B3000534392B200F018FE002818BF0025CEB112
:102B40000A237343B2B24946404601F02BF80028ED
:102B500018BF00250EE0BC42B4BF1AF80410594655
:102B60004046FFF7AFFFB442B8BF09F80400013494
:102B7000AC42F0DB2846BDE8F88F000008B50A4BF0
:102B80001A6842F400721A601A6842F480621A608D
:102B90001A6842F480721A600F20FFF7B5FC00F04B
:102BA00013FA002008BD00BF003C0240024A13682F
:102BB00001331360704700BF6C130020014B18688D
:102BC000704700BF6C130020BFF34F8F0549064BC1
:102BD000CA6802F4E0621343CB60BFF34F8F00BFBB
:102BE000FDE700BF00ED00E00400FA05084910B55C
:102BF0000C6924F440740C610C6944F440740C6159
:102C00000C6944F001040C610260436010BD00BF18
:102C1000003C0240074B1A6922F440721A611A699B
:102C200042F400721A611A6942F001021A610160ED
:102C3000704700BF003C0240074B1A6922F4407203
:102C40001A611A6942F480721A611A6942F001022B
:102C50001A610180704700BF003C0240204BDA68D7
:102C6000D00606D51F49CA6942F01002CA61102277
:102C7000DA60DA68910606D51A49CA6942F0080294
:102C8000CA612022DA60164BDA68520606D5154969
:102C9000CA6942F00402CA614022DA60DA681006AA
:102CA00006D51049CA6942F00202CA618022DA6080
:102CB0000B4BDA68D10507D50A49CA6942F001020F
:102CC000CA614FF48072DA60DA68920706D5054966
:102CD000CA6942F02002CA610222DA60704700BF6E
:102CE000003C024070130020064B1A69002ABFBF47
:102CF000054A5A6002F188320020B4BF5A600120B0
:102D0000704700BF003C024023016745034A136936
:102D100043F0004313610020704700BF003C0240B5
:102D2000064B5A69D20741BF054A9A6002F1443204
:102D300000204CBF9A600120704700BF003C024059
:102D40003B2A1908034A536943F0010353610020E9
:102D5000704700BF003C0240F8B5124B124C0022F5
:102D60000546DA61FFF72AFF26460746E368DA03DD
:102D70000CD4E368DB0744BF0123E360F06810F480
:102D8000F97007D0FFF76AFF012003E0691CEDD05E
:102D90000DB90320F8BDFFF711FFC01BA842E5D90C
:102DA000F7E700BF70130020003C02402DE9F0411E
:102DB0001F4D98462B7E012B07460E46144635D0F4
:102DC00001234CF250302B76FFF7C6FFB0B9CFB9D4
:102DD000184B1A6922F440721A611A691A611A6949
:102DE000E4B242F001021A6134704CF25030FFF745
:102DF000B3FF104A136923F00103136100232B76FC
:102E0000BDE8F081012F04D1A1B23046FFF714FFD5
:102E1000EBE7022F04D121463046FFF7FBFEE4E743
:102E2000224643463046FFF7E1FEDEE70220E7E7B1
:102E300070130020003C02400C4B1A6922F44072CF
:102E40001A6103291A690BD142F4004242F00402CC
:102E50001A611A6942F4803242EA00201861704710
:102E60000129F3D042F40042F2E700BF003C0240E7
:102E700039B1012924D002290CBF4FF400714FF45D
:102E80004071114B1A6922F440721A611A69114398
:102E900019611A690B2822F0F8021A6188BF043000
:102EA000F82292FAA2F21969B2FA82F2904041F045
:102EB0000202104318611A6942F480321A617047A5
:102EC0004FF48071DDE700BF003C0240144B1A68EC
:102ED00091050FD51A6822F400721A601A6842F43C
:102EE00000621A601A6822F400621A601A6842F4DA
:102EF00000721A600A4B1A6852050FD51A6822F43C
:102F000080621A601A6842F480521A601A6822F4C9
:102F100080521A601A6842F480621A60704700BFDB
:102F2000003C02402DE9F843254E337E012B044638
:102F3000884642D001234CF250303376FFF70CFF25
:102F40000546C0B94FF0FF33C8F800302368012BA5
:102F500016D16168207CFFF76FFF4CF25030FFF70D
:102F6000FBFE184A136923F4004323F004030546CB
:102F70001361FFF7ABFF002333762846BDE8F883E3
:102F8000A768DFF84090D4E902231344BB42F0D98C
:102F9000217C3846FFF76CFF4CF25030FFF7DCFE27
:102FA000D9F8103023F0FA03C9F8103018B1C8F876
:102FB00000700546DDE70137E5E70225DDE700BFE4
:102FC00070130020003C02407047000037B500231A
:102FD0000193224B1A6C42F080521A641B6C03F06E
:102FE00080530193019B4FF4803393FAA3F3B3FA18
:102FF00083F303F1845303F560339B0001221A60CD
:10300000FFF7DCFD164C05466368DA0315D54FF46F
:10301000003393FAA3F3B3FA83F303F1845303F574
:1030200060339B0001221A60FFF7C8FD0C4C054677
:1030300063689B030AD5002006E0FFF7BFFD401B35
:10304000B0F57A7FE0D9032003B030BDFFF7B6FDBD
:10305000401BB0F57A7FEBD9F5E700BF003802409E
:10306000007000400368F7B50446D8073BD42368D6
:10307000990700F1868023681E0700F1D18023683C
:103080005D072AD500230193B04BB14D1A6C42F075
:1030900080521A641B6C03F080530193019B2B68D0
:1030A00043F480732B60FFF789FD06462B68DA0531
:1030B00040F1D880A368A54D012B40F0DA802B6F3A
:1030C00043F001032B67FFF779FDA04D064641F25F
:1030D00088372B6F9B0740F1ED80A269002A40F0F2
:1030E000F080002015E0994B9A6802F00C02042A47
:1030F00007D09A6802F00C02082A0CD15B685A02C9
:1031000009D5924B1B689B03B1D56368002BAED1E8
:10311000012003B0F0BD63688C4DB3F5803F11D141
:103120002B6843F480332B60FFF748FD874D06463C
:103130002B689F039BD4FFF741FD801B6428F7D9C0
:103140000320E6E7B3F5A02F04D12B6843F48023D6
:103150002B60E5E72A6822F480322A602A6822F48C
:1031600080222A60002BDFD1FFF728FD06462B685E
:1031700098037FF57CAFFFF721FD801B6428F6D90B
:10318000DEE7724B9A6812F00C0F07D09A6802F0D3
:103190000C02082A16D15B68590213D46B4B1A68CB
:1031A000920702D5E268012AB2D11868F82292FA91
:1031B000A2F2B2FA82F122698A4020F0F8010A43B1
:1031C0001A6058E7E268634BDAB101221A60FFF730
:1031D000F5FC5E4D06462B689B070CD52968F82345
:1031E00093FAA3F3B3FA83F22369934021F0F80230
:1031F00013432B603FE7FFF7E1FC801B0228EAD96D
:103200009EE71A60FFF7DAFC504D06462B689F07D1
:103210007FF531AFFFF7D2FC801B0228F6D98FE78C
:1032200062694D4B7AB101221A60FFF7C7FC474D26
:1032300006466B6F98073FF522AFFFF7BFFC801B78
:103240000228F6D97CE71A60FFF7B8FC3F4D064626
:103250006B6F99077FF513AFFFF7B0FC801B022857
:10326000F6D96DE7FFF7AAFC801B02287FF61EAF98
:1032700066E7052B04D12B6F43F004032B671EE791
:103280002A6F22F001022A672A6F22F004022A67BD
:10329000002B7FF418AFFFF791FC41F28837064608
:1032A0002B6F98077FF519AFFFF788FC801BB8429A
:1032B000F6D945E7FFF782FC801BB8427FF609AFDD
:1032C0003EE7224DAB6803F00C03082B3FF420AF20
:1032D000224E0023022A336048D1FFF76FFC0746D5
:1032E0002B6899013CD447F6C07797FAA7F74FF4BB
:1032F0004032B7FA87F792FAA2F24FF07061B2FA51
:1033000082F091FAA1F1D4E907321343626A02FA1A
:1033100007F7A26A5208013A82403B431343E26A2C
:103320000A4CB1FA81F102FA01F10B436B600123FF
:103330003360FFF743FC054623689A013FF5D1AEA1
:10334000FFF73CFC401B0228F6D9F9E600380240A2
:103350000070004000004742800E47426000474234
:10336000FFF72CFCC01B0228BAD9E9E6FFF726FCC0
:1033700004462B689B017FF5B4AEFFF71FFC001BD2
:103380000228F6D9DCE600BF194A936803F00C0363
:10339000042B10B503D0082B03D0164800E01648C4
:1033A00010BD5168536801F03F0113F4800F47F6D8
:1033B000C074536894FAA4F0B0FA80F003EA0403EE
:1033C00023FA00F314BF0C480A48B0FBF1F058434D
:1033D000074B4FF440325B6892FAA2F2B2FA82F2E3
:1033E00003F44033D34001335B00B0FBF3F0D7E785
:1033F000003802400024F40040787D01554B1A68E3
:1034000002F00F028A422DE9F04105460E462FD305
:103410002A68940736D4D0073CD44E4B1A6802F081
:103420000F02B24200F286802A68510700F18A80BA
:10343000130707D5484A2969936823F4604343EA90
:10344000C1039360FFF7A0FF434BF0229B6892FA01
:10345000A2F2B2FA82F203F0F003D3403F4AD35C07
:10346000D8403F4B18600F20FFF74EF8002007E0D0
:10347000CAB21A701B6803F00F038B42C8D0012038
:10348000BDE8F0813449A8688B6823F0F00303435A
:103490008B60C0E76A68304B012A1DD11B6813F4AA
:1034A000003FECD02C4CA36823F003031343A3602C
:1034B000FFF784FB6B68012B074641F2883815D172
:1034C000A36803F00C03042BA7D0FFF777FBC01B06
:1034D0004045F5D90320D3E7911E01291B6802D886
:1034E00013F0007FDDE713F0020FDAE7022B0AD1B9
:1034F000A36803F00C03082B8FD0FFF75FFBC01B02
:103500004045F5D9E6E7032B0FD1A36803F00C0380
:103510000C2B82D0FFF752FBC01B4045F5D9D9E7F1
:10352000FFF74CFBC01B4045D4D8A36813F00C0F29
:10353000F6D172E7F2B21A701B6803F00F03B342C0
:103540009DD171E70449E8688B6823F4E053034395
:103550008B606DE7003C024000380240AAB80008CA
:10356000B4010020084B4FF4E0529B6892FAA2F29B
:10357000B2FA82F203F4E053D340044AD35C044A23
:103580001068D840704700BF00380240BAB8000841
:10359000B4010020084B4FF460429B6892FAA2F2FB
:1035A000B2FA82F203F46043D340044AD35C044A83
:1035B0001068D840704700BF00380240BAB8000811
:1035C000B40100200F2303600B4B9A6802F0030242
:1035D00042609A6802F0F00282609A6802F4E05257
:1035E000C2609B68DB0803F4E0530361034B1B6874
:1035F00003F00F030B60704700380240003C0240AC
:1036000003685A6822F0E0025A604268B2F5827F8D
:103610000AD18268B2F5004F02D0B2F5806F03D1B3
:103620001A6822F040021A60826AB2F5005F09D17E
:103630001A6822F400521204120C1A601A6842F43A
:1036400000521A60012380F85130002380F8503076
:103650000320704770B505460C46164629688B68EE
:103660009B0701D5002070BD621CF8D024B9284604
:10367000BDE87040FFF7C4BFFFF7A0FA801BA0426F
:10368000ECD3F4E72DE9F041DDF8188005460F464C
:1036900016461C462B6898683840B04202D100207C
:1036A000BDE8F081621CF6D024B92846BDE8F0419F
:1036B000FFF7A6BFFFF782FAA0EB0800A042E9D30C
:1036C000F3E713B50B460092802100220446FFF772
:1036D000D9FF20B1636D43F020036365032002B07E
:1036E00010BD704738B5044600283BD090F85130E3
:1036F00003F0FF021BB980F85020FFF7F2FF2168AA
:10370000A06AA269022384F851300B6823F04003B9
:103710000B60D4E901352B43E5682B4325692B4326
:1037200065692B43E5692B43256A2B43034302F468
:1037300000752B430B60120C636AB0F5005F02F05A
:10374000040242EA030208BFE36A4A6008BF0B6151
:10375000CB6923F40063CB6100200123606584F80A
:10376000513038BD0120FCE72DE9F3411E4690F8A9
:103770005030012B04460D46904600F0BA800123DC
:1037800080F85030FFF71AFA074694F85100C0B29B
:10379000012840F0AC80002D5FD0B8F1000F5CD064
:1037A000032384F8513000236365A363A4F83680B3
:1037B000A387E387C4E91033A36822682563B3F5C0
:1037C000004F08BF1368A4F8348004BF43F480435B
:1037D0001360A36AB3F5005F09D1136823F40053A3
:1037E0001B041B0C1360136843F40053136013682D
:1037F000E1685B065EBF136843F040031360B1F5F8
:10380000006F63683AD11BB1E38E9BB2012B06D1E6
:1038100035F8023BD360E38E013B9BB2E386E38E37
:103820009BB283B93A4631462046FFF713FF98B959
:103830003A4631462046FFF744FF002840D0202377
:103840006365012009E023689A68900703D535F87D
:10385000022BDA60DFE74EB90320012384F85130F0
:10386000002384F8503002B0BDE8F081711CD6D03E
:10387000FFF7A4F9C01BB042D1D3EDE71BB1E38E33
:103880009BB2012B06D115F8013B1373E38E013B6C
:103890009BB2E386E38E9BB2002BC3D023689A6869
:1038A000920703D515F8012B1A73EFE7002ED3D03A
:1038B000731CEFD0FFF782F9C01BB042EAD3CBE70D
:1038C000A36833B901932368DA6801929B68019376
:1038D000019BA36AB3F5005F01BF2268136843F43C
:1038E00080531360606D003018BF0120B5E70220DF
:1038F000B3E70220B7E72DE9F04385B099460023EE
:10390000ADF80A3090F850300C9E012B04460D465D
:10391000904600F04581012380F85030FFF74EF9C2
:1039200094F851306168DBB2012B07460AD0B1F53B
:10393000827F40F03381A268002A40F02F81042B5F
:1039400040F02C81002D00F01B81B8F1000F00F039
:103950001781B9F1000F00F0138194F85130A26A79
:10396000C4F83880012B04BF052384F851300023AC
:10397000B2F5005F6365C4E91033A4F83E90A4F883
:103980003C902563A4F83690A4F83490236809D1BC
:103990001A6822F400521204120C1A601A6842F4D7
:1039A00000521A601A6850065EBF1A6842F0400260
:1039B0001A60E268B2F5006F6BD119B1E28E92B273
:1039C000012A06D135F8022BDA60E38E013B9BB267
:1039D000E3864FF00109E38E9BB2B3B9E38F9BB24C
:1039E0009BB9A36AB3F5005F40F0AE800122009757
:1039F000334611462046FFF745FE002800F09D8023
:103A0000636D43F00203636535E0B9F1000F1BD02D
:103A1000E38E9BB2C3B122689368990714D535F839
:103A2000023BD360E38E013B9BB2E386E38E1FFA39
:103A300083F9B9F1000F29D1A16AB1F5005F03D173
:103A4000116841F480511160E38F9BB263B1236828
:103A50009A68D20708D5DB6828F8023BE38F013B60
:103A60009BB2E3874FF00109701CB4D0FFF7A6F8B2
:103A7000C01BB042AFD30325012384F8513000238B
:103A800084F85030284605B0BDE8F0834FF00009B7
:103A9000DAE719B1E28E92B2012A06D115F8012BAC
:103AA0001A73E38E013B9BB2E3864FF00109E38E6C
:103AB0009BB21BB9E38F9BB2002B92D0B9F1000FE0
:103AC00021D0E38E9BB2F3B123689A6891071AD58F
:103AD00029781973E38E013B9BB2E386E38E1FFACC
:103AE00083F96A1CB9F1000F0AD1A16AB1F5005F30
:103AF00004D12068016841F480510160154602E05C
:103B000015464FF00009E38F9BB273B123689A68A2
:103B1000D2070AD5DB6888F80030E38F013B9BB2FF
:103B2000E38708F101084FF00109731CBFD0FFF7CC
:103B300045F8C01BB042BAD39DE72368DB689BB24F
:103B4000ADF80A30BDF80A302268956815F0100506
:103B500007D0636D43F0020363654FF6EF73936024
:103B600001253A4631462046FFF774FD002882D1F0
:103B70003A4631462046FFF7A4FD18B1202363657D
:103B8000012579E7A368002B7FF476AF03932368C0
:103B9000DA6803929B680393039B6DE702256BE74A
:103BA00002256FE72DE9FF411D460023ADF80E30D9
:103BB0004368B3F5827F04460E4690460CD1836875
:103BC00053B9042380F85130134600950A46FFF795
:103BD00092FE04B0BDE8F08194F85030012B00F063
:103BE000CF80012384F85030FEF7E8FF074694F8B1
:103BF0005100C0B2012840F0C180002E7FD0B8F142
:103C0000000F7CD0A26AA663042384F85130B2F579
:103C1000005F4FF0000363652363A4F83E80A38632
:103C2000E386C4E91033A4F83C8023680DD11A68F8
:103C300022F400521204120C1A601A6842F4005264
:103C40001A60E28F013A92B2E287A268B2F5004FA1
:103C500002BF1A6822F480421A601A6850065EBFDA
:103C60001A6842F040021A60E368C3B1E38F226829
:103C70009BB2CBB19368D80750D5D36826F8023BE6
:103C8000E38F013B9BB2E387F0E79368D90734D514
:103C9000137B06F8013BE38F013B9BB2E387E38F85
:103CA00022689BB2002BF0D1A36AB3F5005F46D126
:103CB0002268136843F480531360012200972B4657
:103CC00011462046FFF7DEFCC0B9E2682368B2F572
:103CD000006F0ABFDB681B7B33804FF0010218BF07
:103CE000337000972B4611462046FFF7CBFCF8B106
:103CF000636D43F00203636500E03DB903200123D7
:103D000084F85130002384F8503062E76B1CC6D031
:103D1000FEF754FFC01BA842C1D3EFE7002DEDD042
:103D2000691CA3D0FEF74AFFC01BA8429ED3E5E75B
:103D30002368DB689BB2ADF80E30BDF80E306368C7
:103D4000B3F5827F23680AD1A268B2F5004F02D092
:103D5000B2F5806F03D11A6822F040021A609A68A7
:103D6000D20606D5626D42F0020262654FF6EF722E
:103D70009A60606D003018BF0120C0E70220BEE7E6
:103D8000022026E7704700002E4A0368904212D0B6
:103D9000B0F1804F0FD0A2F57C4290420BD002F5DB
:103DA0008062904207D002F58062904203D002F513
:103DB0007842904219D14A6823F070031343214A94
:103DC000904229D0B0F1804F26D0A2F57C4290429B
:103DD00022D002F5806290421ED002F580629042AD
:103DE0001AD002F57842904216D0174A904213D06A
:103DF00002F5806290420FD002F5806290420BD0B3
:103E0000A2F59832904207D002F58062904203D02A
:103E100002F58062904203D1CA6823F440731343D1
:103E200003608B68C3620B688362064B984203D0C1
:103E300003F58063984201D10B6903630123436159
:103E4000704700BF000001400040014010B504462B
:103E5000A0B190F8393003F0FF021BB980F8382088
:103E6000FFF790FF022384F839302068211DFFF707
:103E70008BFF012384F83930002010BD0120FCE7BE
:103E8000036A10B501248C4023EA04030362036A29
:103E90008A401A43026210BD10B504460122006830
:103EA000FFF7EEFF2368084A934203D002F58062D1
:103EB000934203D15A6C42F400425A641A6842F0A9
:103EC00001021A60002010BD000001402DE9F843F6
:103ED0000368C1681A69044622F440520A431A6111
:103EE0002569A268D968C0692A43656921F4164129
:103EF0002A4321F00C0102430A43DA605A69A1699E
:103F000022F440720A43B0F5004F5A617A4A7BD1DD
:103F1000934203D002F58062934244D1FFF73AFB0B
:103F2000676819254FF0640805FB00F37F00B3FBB9
:103F3000F7F3B3FBF8F31F01FFF72CFB636868434B
:103F40005B00B0FBF3F6FFF725FB636868435B009B
:103F5000B0FBF3F3B3FBF8F308FB1363DB0032337E
:103F6000B3FBF8F35B0003F4F876FFF713FB62682A
:103F700068435200B0FBF2F9FFF70CFB636822685C
:103F800068435B00B0FBF3F3B3FBF8F308FB139358
:103F9000DB003233B3FBF8F303F007033B44334455
:103FA0009360BDE8F883FFF7DDFA676819254FF0E5
:103FB000640805FB00F37F00B3FBF7F3B3FBF8F3F2
:103FC0001F01FFF7CFFA636868435B00B0FBF3F6AD
:103FD000FFF7C8FA636868435B00B0FBF3F3B3FB19
:103FE000F8F308FB1363DB003233B3FBF8F35B0039
:103FF00003F4F876FFF7B6FA626868435200B0FB44
:10400000F2F9FFF7AFFAB9E7934202D03B4A934285
:1040100041D1FFF7BFFA676819254FF0640805FB27
:1040200000F3BF00B3FBF7F3B3FBF8F31F01FFF797
:10403000B1FA636868439B00B0FBF3F6FFF7AAFA96
:10404000636868439B00B0FBF3F3B3FBF8F308FB32
:1040500013631B013233B3FBF8F303F0F006FFF7F1
:1040600099FA626868439200B0FBF2F9FFF792FA9E
:104070006368226868439B00B0FBF3F3B3FBF8F37B
:1040800008FB13931B013233B3FBF8F303F00F0368
:1040900033433B4484E7FFF765FA676819254FF01F
:1040A000640805FB00F3BF00B3FBF7F3B3FBF8F3C1
:1040B0001F01FFF757FA636868439B00B0FBF3F6F4
:1040C000FFF750FA636868439B00B0FBF3F3B3FB60
:1040D000F8F308FB13631B013233B3FBF8F303F06F
:1040E000F006FFF73FFA626868439200B0FBF2F90E
:1040F000FFF738FABCE700BF001001400014014090
:10410000704710B5044640B390F8393003F0FF0211
:104110001BB980F83820FFF7F3FF2268242384F8C6
:104120003930D36823F40053D3602046FFF7CEFE26
:1041300023681A6922F490421A615A6922F02A020D
:104140005A61DA6842F40052DA6000202023E0630A
:1041500084F8393084F83A3010BD0120FCE70000C3
:10416000174A1849936803F00C03042B10B50DD0BF
:10417000082B0DD0144B0B60114B144A9B68C3F3F2
:104180000313D25C0B68D3400B6010BD104BF2E7F9
:104190005468506852686302C2F3881200F03F000E
:1041A0004CBF0B4B084BB3FBF0F35343044A52682C
:1041B000C2F3014201325200B3FBF2F3DBE700BF6E
:1041C00000380240B40100200024F400AAB800081E
:1041D00040787D01002808DB4209012300F01F0020
:1041E00003FA00F0014B43F82200704700E100E0C1
:1041F00000280DDB4309012200F01F0002FA00F045
:104200002033044A42F82300BFF34F8FBFF36F8F70
:10421000704700BF00E100E0F7B5154E074656F8BD
:10422000200010B3134CBD0163591A68120606D55D
:10423000DB68190603D5104B01211B6898476359A9
:104240001A68920608D5DB68980605D50A4B56F819
:1042500027001B680021984763591A68110704D585
:104260005A69D20744BF5B68019303B0F0BD00BF39
:10427000980C002090130020940C00200020FFF7E1
:10428000CBBF0120FFF7C8BF0220FFF7C5BF032047
:10429000FFF7C2BF0420FFF7BFBF0520FFF7BCBF79
:1042A0000620FFF7B9BF0720FFF7B6BFF0B50E46EF
:1042B00089B004468B4930461546FDF7FDF98A4919
:1042C00007462846FDF7F8F901463846FDF7D6F9C6
:1042D000864B2060984200F0C08024D8A3F500638C
:1042E000984200F08E8003F58063984200F09F8032
:1042F000A3F50063984220D17D4B1A6A42F4003244
:104300001A621A6A22F400321A62002201921A6CAE
:1043100042F400321A641B6C03F400330193019BD6
:104320000123636009E0734B984200F0C28035D8E6
:10433000A3F58063984200F0A6806A493046FDF7F5
:104340007FF928466849FDF77BF9701C03D00121ED
:104350003046FEF7E5F9691C03D001212846FEF737
:10436000DFF900234FF41652C4E90223C4E90433F1
:104370002362268365832046FEF70AFA22685E4B95
:104380009A4240F0AC805D4B5D4801221A602146A4
:104390004C2209B0BDE8F04005F0C9B9594B98422C
:1043A00019D003F580639842C7D1514B5A6A42F045
:1043B00020025A625A6A22F020025A6200220592B2
:1043C0005A6C42F020025A645B6C03F020030593A0
:1043D000059B0523A5E7464B5A6A42F010025A6234
:1043E0005A6A002122F010025A6200915A6C42F07F
:1043F00010025A645B6C616003F010030093009B31
:104400009BE73B4B1A6A42F480221A621A6A22F432
:1044100080221A62002202921A6C42F480221A64EC
:104420001B6C03F480230293029B022379E7304B39
:104430001A6A42F400221A621A6A22F400221A62EC
:10444000002203921A6C42F400221A641B6C03F4DB
:1044500000230393039B032363E7254B1A6A42F46B
:1044600080121A621A6A22F480121A6200220492DE
:104470001A6C42F480121A641B6C03F480130493C8
:10448000049B04234DE71A4B1A6A42F080421A62D9
:104490001A6A22F080421A62002206921A6C42F0D6
:1044A00080421A641B6C03F080430693069B06232C
:1044B00037E70F4B1A6A42F000421A621A6A22F07A
:1044C00000421A62002207921A6C42F000421A64FB
:1044D0001B6C03F000430793079B072321E709B0F8
:1044E000F0BD00BFBCBA000850BA00080050004040
:1044F00000380240007C0040004C0040C00C00200E
:1045000010160020001001408160FEF741B9000044
:10451000034B19604168034B43F82120704700BFEB
:10452000940C0020980C002038B543680D46072BEA
:104530002DD8DFE803F004171A1D2023262922496D
:1045400025249B012148C3583AB3DA6815BB42F0D1
:1045500020022046DA6000F099F82046BDE8384095
:10456000FFF738BE1A492624EBE71A492724E8E763
:1045700019493424E5E719493524E2E71849472465
:10458000DFE718495224DCE717495324D9E7002113
:104590000C46D6E742F08002DBE7DA685DB922F02C
:1045A0002002DA60DB6813F0800F0BD12046BDE8F3
:1045B0003840FFF71DBE22F08002DA60DB6813F09E
:1045C000200FF2E738BD00BF7D42000890130020A5
:1045D00083420008894200088F4200089542000883
:1045E0009B420008A1420008A742000838B5446871
:1045F00005462846FEF7FEF80028FAD0A401034B32
:104600001B595868C0F3080038BD00BF9013002044
:1046100070B5456806460C463046FEF701F900289D
:10462000FAD0AD01024B5B59C4F308045C6070BD65
:104630009013002008B5124AC36D934218D00CD8CD
:10464000A2F57842934217D002F58062934213D0CC
:104650000C48FDF7C9FA002008BD0B4A934207D069
:1046600002F58062934203D0A2F500529342EFD14B
:10467000BDE80840FEF78EBFBDE80840FEF772BFF8
:1046800000300140C2B80008005001400D4A30B56A
:1046900094689268B2F1006F23460ED10A4D4FF034
:1046A0000053E21802F16042126843F8042BAB4257
:1046B000F7D1044A4FF000539360103043F82010B4
:1046C00030BD00BF00ED00E0AC010020DFF820D0DD
:1046D000002103E0074B5B58435004310648074B69
:1046E00042189A42F6D300F00DF8FBF77FFD7047B1
:1046F00000000320E8C90008AC0100208404002069
:10470000FEE700000F49D1F8883043F47003C1F888
:1047100088300D4B1A68002042F001021A60986040
:104720001A6822F0847222F480321A60074A5A60B2
:104730001A6822F480221A60D8604FF000638B6000
:10474000704700BF00ED00E0003802401030002448
:1047500030B595B0254A00230193116C41F080518A
:104760001164126C224902F080520192019A029364
:104770000A6822F4404242F400420A600A6802F4E5
:1047800040420292029A0122089250BB4FF48032BA
:1047900002250B934FF48003CDE90E5319214FF4FA
:1047A000A873CDE9101308A8072309921295139353
:1047B000FEF758FCC0B9FEF709FCA8B90F23CDE9F4
:1047C000033505904FF4A0524FF48053052103A800
:1047D000CDE90623FEF712FEB0FA80F0400915B0CD
:1047E00030BD4FF4A022D3E70020F8E700380240A4
:1047F0000070004008B50020FFF7AAFF00B9FEE7EF
:1048000008BD7047014B586A704700BF000C00405C
:10481000054B1B68DA6822F00202DA605863DA6836
:1048200042F00202DA6070475C160020034B1A68FF
:10483000536943F002035361704700BF5C160020C8
:10484000034B1A68D36823F00203D360704700BF9C
:104850005C160020024B1B686FF002021A61704761
:104860005C1600207047704770477047704770476C
:1048700070470020704700207047002070470020DC
:10488000704700207047002070470000024670B556
:104890003E4B3F4E42F8043B08230446C6F888309E
:1048A000BFF34F8FBFF36F8F3A4B3B4D93E803003D
:1048B00082E8030003F1080103C904F10C0282E855
:1048C000030003F1100103C904F1140282E803009C
:1048D00003F1180103C904F11C0282E8030003F18B
:1048E000200103C904F12402283382E8030093E87D
:1048F000030004F12C0282E803002B6B43F0010358
:104900002B6340F61A210A20FDF786FE40F60221AD
:104910000B20FDF781FE40F602210C20FDF77CFE06
:104920006B6B43F080036B634FF0A04320469A68A3
:1049300042F001029A60DA6842F47052DA609A69D1
:1049400042F4805242F018029A61D3F8002842F0F3
:104950000702C3F800289A6B42F480329A639A6B7C
:1049600022F480229A639A6B22F400229A639A6B53
:1049700042F400129A63094B094A1C60094B9B6878
:10498000C3F84C21102386F8433370BD54BB000894
:1049900000E100E088BB000800380240100D002054
:1049A000554E000800ED00E070470000014B082262
:1049B0009A60704700E100E0044B0822C3F88820A9
:1049C000BFF34F8FBFF36F8F704700BF00E100E070
:1049D000704770470729F0B54FEA610008D80123F6
:1049E0008B4013F00C0F35D113F0F00F34D10023AE
:1049F000CC0742EA834331D51F4D01292E6818BFE9
:104A000084004FEA92020CBF4FF0A04404F1A0448E
:104A100046EA02470CBFA762C4F80071012932447C
:104A200018BF43F080532A604FF0A04143F4004385
:104A300042010A4443EA805343F00063C2F800395C
:104A4000D1F81C28012303FA00F01043C1F81C0818
:104A50000120F0BD0323CBE70223C9E74FF0A041BB
:104A600042010A4443F0806343F40043C2F8003B30
:104A7000D1F81C281030E5E70C0D002030B5074CAC
:104A80000A4604F14005234603CBAB421060516057
:104A90001C4602F10802F6D130BD00BFCC0C00204C
:104AA00070477047074B70B51868074E0022824266
:104AB00005D29408356841F824500432F7E7002203
:104AC0001A6070BDC80C0020001000504B105B0134
:104AD00003F1A04342F0005242F40022C3F8102B2D
:104AE000D3F8002B42F00442C3F8002B044A012003
:104AF000136800FA01F123EA01011160704700BF59
:104B0000C40C00200E4800680841C007F0B514D559
:104B10000C4C4910090301F1A0412668002501F55C
:104B20008051B54205D2A8080F6842F820700435BC
:104B3000F7E7002020601E60F0BD0120FCE700BF09
:104B4000C40C0020C80C0020481070B5440104F1CA
:104B5000A04443F40025C4F81059D4F8005945F096
:104B60000445C4F800594FF0A046012585400333A1
:104B7000C6F834589B08D4F81859ADB29D42FAD300
:104B800002EB8304030303F1A04303F58053A24225
:104B900003D052F8040B1860F9E7044A01201368A7
:104BA00000FA01F123EA0101116070BDC40C00207C
:104BB00013460A460021FFF7C7BF4FF0A042D2F8C4
:104BC000003843EA0111C2F8001800221146FFF72D
:104BD000EFBF0000074B1A680A4112F0010F4FF0B7
:104BE000010005D01A68884022EA00001860002001
:104BF000704700BFC40C00204B1011F0010F4FEAAA
:104C000043130C4807D003F1A043D3F80029024313
:104C1000C3F8002970474FF0A0421344D2F804189B
:104C200041F40071C2F80418D3F8002B0243C3F812
:104C3000002B7047000020400121FFF7DDBF7047C7
:104C4000002070474FF0A0432DE9F0475B691F0536
:104C5000044603D5036801215B6998474FF0A045DE
:104C60006B69DE0436D5236800215B6920469847CE
:104C7000D5F8003B714A43F00063C5F8003BD5F816
:104C8000203B43F00063C5F8203BD5F8403B43F0A0
:104C90000063C5F8403BD5F8603B43F00063C5F8BE
:104CA000603B01218023C5F8101820466B62136019
:104CB00000234022FFF78EFE0023194640222046A3
:104CC000FFF788FE402200212046FFF7FFFE4FF449
:104CD00080536B614FF0A0425369DD065CD5136AC7
:104CE000574EC3F34341C3F30A100629306016D16F
:104CF000544D0023834208D2990801F5806704339C
:104D000052F8277045F82170F4E7002333603168CA
:104D10004D4A002399423BD910680433FAE704292D
:104D200009D1236820465B6898474022002120462D
:104D3000FFF7CCFEEBE70229E9D15B0013F01E037D
:104D400004D1236820469B689847E0E73F4A4048E3
:104D50001168D0F800C001279F4004EBC30339431A
:104D600053F8085C1160691015F0010F53F80C3C02
:104D7000154618BF5CF801200CEB010018BFD35892
:104D800098470028C3D02B6823EA07072F60BEE7A7
:104D90004FF0A04310225A614FF0A04673695803A8
:104DA0003BD5DFF8A89000254FF00108D6F8183859
:104DB00008FA05FA1AEA030F27D06F0107F1A0439A
:104DC000D3F8083919060FD51DB923682046DB68CA
:104DD000984707F1A0428023C2F80839D6F8343842
:104DE00023EA0A03C6F8343807F1A047D7F8083990
:104DF000DA070AD56B00D9F80020013308FA03F36B
:104E00001343C9F80030C7F808890135042DCDD106
:104E10004FF0A0434FF480225A614FF0A0456B69D8
:104E20001B0708D5E9692368C1F343419B69204604
:104E3000984708236B61BDE8F08700BF0C0D002088
:104E4000C80C0020CC0C002000100050C40C002026
:104E5000100D0020014B1868FFF7F4BE100D002064
:104E6000704700207047704700207047002070474F
:104E70000020704700207047022280F85420036809
:104E8000002280F8552080F856205B6B1847704749
:104E900000487047CA010020004870470202002005
:104EA00000487047CE0100200048704714020020DF
:104EB00000487047FA01002000487047E4010020D4
:104EC00038B50E4C2378BFF35B8FDB07054613D450
:104ED0002046FCF7FAFF78B1094BAA8E1A72120A23
:104EE0005A72EA8E9A72120ADA722A8F1A7320465E
:104EF000120A5A73FCF7F4FF014838BD140D002064
:104F0000B8010020B0F840301A12022A70B50446E9
:104F100021D0032A48D0012A03D103689B6C98470B
:104F200008B9002016E0236820469B6C9847067855
:104F3000122EF6D1236820469B6C98474578012DA8
:104F4000EFD12368E6649B6C2046984784F8505064
:104F5000A064284670BD0368DB6C98470028E0D049
:104F600023682046DB6C98470378092BD9D1236846
:104F70002046DB6C98474378022BD2D12368204629
:104F8000DB6C984723688578DB6C20469847C378AC
:104F900045EA03252368E564DB6C20469847A06456
:104FA000012084F85000D5E7DBB2052BB9D8DFE843
:104FB00003F0030B131B232B03681B6D9847037827
:104FC000E36423681B6DE8E703685B6D984703782B
:104FD000E36423685B6DE0E703689B6D98470378A3
:104FE000E36423689B6DD8E70368DB6D984703781B
:104FF000E3642368DB6DD0E703681B6E9847037892
:10500000E36423681B6EC8E703685B6E9847037808
:10501000E36423685B6EC0E70B78DB0913700B78E1
:10502000C3F3411353700B7803F01F0393704B7855
:10503000D370C8788B7843EA0023938048790B7942
:1050400043EA0023D380C8798B7943EA0023138194
:10505000704730B590F8505091B0044615BB694682
:10506000FFF720FDE36C984202461BD8A16C1D1A85
:105070000144A164E5648DB994F8523033B12368DA
:105080006946DB6B2046984784F85250002211464F
:105090002046FFF78DFD012011B030BD2046FFF7FF
:1050A00000FDF8E70020F7E710B50446FFF7D1FF51
:1050B00020B92046BDE81040FFF7BEBD10BD70B559
:1050C000C56C0446E5B990F851302BB12A46294603
:1050D000FFF76EFD84F8515094F8523043B12368C5
:1050E0000022DB6B114620469847002384F852309B
:1050F0002046FFF7D6FC2046FFF7D2FC012070BD0A
:1051000090F85060012E0DD1402D28BF40252A4631
:10511000816CFFF74DFDA36C2B44A364E36C5D1B16
:10512000E564EBE70020EAE710B50446FFF7C7FFA8
:1051300020B92046BDE81040FFF77EBD10BD10B578
:10514000044690F84010FFF738FDB4F8403023B91A
:10515000022384F85430012010BD0323F9E790F8AE
:10516000401038B5044680F8551039B9FFF731FCC6
:10517000032384F854300125284638BD03681B6C8E
:10518000984705460028F7D02046FFF721FC042366
:1051900084F85430F0E790F85430042B0CD1B0F878
:1051A0005830A0F8423000F15A0383640123C364ED
:1051B00080F850301846704700207047036890F818
:1051C00040205B6CB0F8421010B50446984738B1E7
:1051D000B4F84230A4F85830B4F8403084F85A306B
:1051E00010BD08B590F85430042B02D0B0F842300E
:1051F00093B990F83E30022B0ED1B0F840305BB935
:10520000B0F84230590001F01E01C3F3C013194336
:10521000FFF7F2FC012008BD0020FCE708B590F87C
:105220005430042B02D0B0F8423093B990F83E309D
:10523000022B0ED1B0F840305BB9B0F842305900C3
:1052400001F01E01C3F3C0131943FFF7F8FC01205E
:1052500008BD0020FCE7000090F85430042B10B586
:10526000044602D0B0F8423033B994F83E30012BF6
:1052700007D003D3022B0FD000200CE00E4B0122ED
:1052800001E00D4B00221A800B4BA3640120022386
:10529000E36484F8500010BDB4F84230590001F0C6
:1052A0001E01C3F3C01319432046FFF7C9FC024B8C
:1052B0000028E4D11880E7E7180D002090F83D3071
:1052C00023BB90F83F300B2B20D8DFE803F0060813
:1052D0001F0A1F0C0E1F10191B1DFFF7BDBFFFF784
:1052E0009DBFFFF77EBFFFF72ABFFFF70BBE00F1A0
:1052F000550383640123C36480F850301846704717
:10530000FFF72DBFFFF747BFFFF758BF00207047DB
:1053100010B590B004466946FFF7B0FB204604F193
:105320003C026946FFF778FE002384F85030C4E958
:10533000123384F8513084F85230236820469B6B36
:10534000984748B1B4F8443073B9E26C4AB9114691
:105350002046FFF72DFC1EE02046FFF7AFFF002898
:10536000F0D1002010B010BD94F83C1094F85020FB
:10537000012912D1012AF4D1E26C9A4200D9E364E6
:10538000E26C934204D9930604BF012384F85130A0
:105390002046FFF794FE0120E4E7002AE1D1E26C09
:1053A0009A42DED12046FFF77CFBF4E710B50446B5
:1053B000FFF7AEFF20B92046BDE81040FFF73CBC28
:1053C00010BD90F85400031F58425841704738B53B
:1053D0000D460446FFF7EAFA1DB194F85430042B49
:1053E000FBD138BD10B50446FFF7E6FA012384F877
:1053F0005430002384F8553084F8563010BD3C30CA
:1054000070470023FFF7E6BAF8B504461D460F467D
:105410001646FFF73BFA074B2360012384F854300C
:105420000023A786E686258784F8553084F8563011
:105430002046F8BDC0BB000808B5FFF747FB431E78
:105440005842584108BD70B5049EB34204460D460B
:1054500001D9002070BD90F85460042EF9D1FFF7F7
:1054600073FB0128F5D129462046FFF7B3FB01283D
:1054700003D194F85430042BF5D0B0FA80F04009F1
:10548000E8E7F8B51F4690F85430042B04460D4663
:1054900016460FD13B46324629462046FFF732FBDF
:1054A000012803D194F85430042BF3D0B0FA80F0E3
:1054B0004009F8BD0020FCE77047002380F85B300E
:1054C0007047000000487047940200200048704771
:1054D0007E020020004870473302002010B50446C9
:1054E000FFF78DFF4378012B1AD1C278212A07D00C
:1054F000222A0CD0202A13D107220261837504E0EE
:1055000007220261074AC2600375184610BD8288EF
:1055100012F0010214BF84F85B3084F85B20F4E7DA
:105520000023F2E71A020020072AF7B506460C46C8
:10553000174626D1FFF763FF4378012B21D1C378AB
:10554000202B1ED1104D3A462146284604F0E0F8A3
:10555000B8B123682B60A388AB80A379AB71607866
:1055600021786379A279356801EB0021A07801EBFD
:105570000041E0782479009401EB0061EC6E304644
:10558000A04703B0F0BD00BF1A020020012938B5C2
:1055900005460C4614D140220321FFF732FF40227A
:1055A00005212846FFF72DFF402204212846FFF75A
:1055B00028FF402204212846FFF73EFF204638BD41
:1055C0000020FCE738B50C4C2378BFF35B8FDB077A
:1055D00005460FD42046FCF778FC58B1074BAA8E3D
:1055E0001A72120A5A72EA8E9A722046120ADA72F5
:1055F000FCF776FC014838BD1C0D0020210200207C
:1056000010B50446FFF700FF054B2360002320463A
:1056100084F85B309DF80810FFF7D9FE204610BDD6
:1056200034BC000807B54023009313460A46052101
:10563000FFF709FF03B05DF804FB37B540241346BC
:1056400000940A4604210546FFF71BFF38B12246A5
:105650000421284603B0BDE83040FFF7EDBE03B09B
:1056600030BD30B4D0F80C410D4611461A46029BAD
:105670001CB12846A44630BC604730BC7047034686
:10568000B3F88610B3F8842092B28A42F8D0B3F807
:105690008610B3F8842092B28A4216D0B3F88620DE
:1056A00092B2511C89B21A44A3F8861092F888006D
:1056B000B3F88620812192B292FBF1F101EBC11186
:1056C000521A92B2A3F88620704700207047A0F1CA
:1056D0005C00FFF7D4BF07B590F85B20019102F0A2
:1056E000FF033AB1012201A9FFF79CFF012003B09B
:1056F0005DF804FB1846FAE7A0F15C00FFF7EBBF8A
:10570000F0B593B012AA002601AD42F8486D2946C3
:105710000446FFF792FF009832468121904234D030
:10572000B4F88430B4F886C0AE5C013393FBF1F773
:1057300007EBC717DB1B634510D1B4F88630013384
:105740009BB2A4F88630B4F886309BB293FBF1F795
:1057500007EBC717DB1B9BB2A4F88630B4F8843084
:105760009BB25F1C2344BFB2A4F8847083F88860A6
:10577000B4F884309BB293FBF1F606EBC6169B1B84
:105780009BB2A4F884300132C8E7D4F880301BB152
:105790001B6804F174009847012013B0F0BDB0F805
:1057A0008430B0F886209A42B0F884308BBFB0F8CD
:1057B0008620B0F8860003F18100181A88BF801A8D
:1057C00080B2C0B27047002303707047034610B127
:1057D00007C983E807007047704730B4456884689C
:1057E0006A100346ED0704EB02001B6848BFA2588D
:1057F00030BC48BFD35818472DE9F8430D4681689F
:1058000004461F46436940680904196003689F21E4
:105810001B68164698476068036800211B68984714
:1058200081466068036800211B689847804660686D
:10583000036800211B6898472369A2681A6085F8ED
:10584000009086F800803870BDE8F883F8B51F46F0
:10585000836804461646426940681B041360036867
:105860000D461B68032198476068036829141B686C
:1058700098476068036829121B6898476068036846
:1058800029461B6898473546AB1B9F4207DD606879
:10589000036800211B68984705F8010BF4E72369AA
:1058A000A2681A60F8BD8368426910B50446406872
:1058B0001B04136003681B6829B1062198472369FC
:1058C000A2681A6010BD0421F8E78368426910B528
:1058D000044640681B041360036805211B68984751
:1058E0006068036800211B6898472369A2681A60F2
:1058F000C0B210BD08B5FFF7E8FF00F0010008BD19
:105900002DE9F04104460D460121164698469DF8C2
:105910001870FFF7C8FFA368626960681B04136012
:10592000036802211B6898476068036829141B6894
:1059300098476068036829121B6898476068036885
:1059400029461B6898473546AB1B984506DD6068BD
:1059500015F8011B03681B689847F5E72369A268DF
:105960001A6027B12046FFF7C5FF0028FAD120466C
:105970000021BDE8F041FFF796BF70B504460D4623
:1059800001211646FFF78FFFA368626960681B0458
:105990001360036820211B68984760680368291416
:1059A0001B6898476068036829121B6898476068FD
:1059B000036829461B6898472369A2681A6026B1C4
:1059C0002046FFF797FF0028FAD120460021BDE8C6
:1059D0007040FFF768BF70B504460D4601211646BA
:1059E000FFF761FFA368626960681B0413600368C6
:1059F000D8211B6898476068036829141B6898477A
:105A00006068036829121B68984760680368294624
:105A10001B6898472369A2681A6026B12046FFF7E1
:105A200069FF0028FAD120460021BDE87040FFF749
:105A30003ABF00002DE9FF4100F1080504460E467B
:105A4000904600211C2228461F4603F094FE28465B
:105A5000414604F12805FBF7EFFD102200212846FE
:105A600003F089FE0022082130466660FBF7E2FB66
:105A70002369A2681A6039466068FBF7FBFB0D4A90
:105A8000029400232370CDE9002328460A4B039398
:105A9000FBF7AEFA039B1BB15B6869462846984743
:105AA000039B63636846FBF7A3FA204604B0BDE896
:105AB000F08100BFC757000898BD0008F8B50C4B2F
:105AC0001B7804466BB10B4F0B4E0D18AC420DD03A
:105AD0003B683068196A01226143FFF74EFF0134C9
